:020000040800F2
:10000000005000205D090008F908000801090008F7
:10001000090900081109000819090008000000007A
:10002000000000000000000000000000210900089E
:100030002D090008000000003909000845090008E2
:10004000A5090008A5090008A5090008A5090008D8
:10005000A5090008A5090008A5090008A5090008C8
:10006000A5090008A5090008A5090008A5090008B8
:10007000A5090008A5090008A5090008A5090008A8
:10008000A5090008A5090008A5090008A509000898
:10009000A5090008A5090008A5090008A509000888
:1000A000A5090008A5090008A5090008A509000878
:1000B000A5090008A5090008A5090008A509000868
:1000C000A5090008A5090008A5090008A509000858
:1000D000A5090008A5090008A5090008A509000848
:1000E000A5090008A5090008A509000800000000EE
:1000F0000000000000000000000000000000000000
:0C01000000000000000000005FF808F1A3
:10010C0010B5054C237833B9044B13B10448AFF345
:10011C0000800123237010BD0C00002000000000A3
:10012C008C2A000808B5034B1BB103490348AFF3F5
:10013C00008008BD00000000100000208C2A000880
:10014C0080B500AF00F02AFC00F01CF800F0A6F916
:10015C0000F026F900F04EF900F076F900F0D6F830
:10016C0000F0A6F800F066F801224FF400510448A4
:10017C0001F014F94FF47A7000F072FC00BFF3E751
:10018C000010014080B594B000AF07F1280328227D
:10019C000021184602F048FC07F1140300221A60F3
:1001AC005A609A60DA601A613B1D00221A605A602C
:1001BC009A60DA600A23BB620123BB631023FB63E2
:1001CC0001233B6400237B6407F12803184601F0EC
:1001DC004DFA0346002B01D000F0F2F90F237B619E
:1001EC000023BB610023FB614FF480633B6200235F
:1001FC007B6207F114030021184601F0B9FC034699
:10020C00002B01D000F0DCF903237B604FF400736A
:10021C00BB604FF40043FB603B1D184601F036FEFB
:10022C000346002B01D000F0CBF900BF5037BD4680
:10023C0080BD000080B584B000AF3B1D00221A6069
:10024C005A609A60184B194A1A60174B00229A6030
:10025C00154B00221A73144B00221A75124B4FF4D3
:10026C006022DA61104B00225A600F4B01221A6196
:10027C000D4800F019FC0346002B01D000F0A0F94A
:10028C0000237B600123BB600023FB603B1D1946F0
:10029C00054800F0E1FC0346002B01D000F090F97A
:1002AC0000BF1037BD4680BD28000020002401404F
:1002BC0080B500AF124B134A1A60114B124A5A60A8
:1002CC000F4B00229A600E4B0022DA600C4B4FF45D
:1002DC0080421A610A4B00225A61094B00229A6132
:1002EC00074B0022DA61064B00221A62044801F027
:1002FC006DF80346002B01D000F062F900BF80BD01
:10030C005800002000540040A086010080B582B047
:10031C0000AF3B1D00210A461A800A469A70002342
:10032C003B601D4B1D4A1A601B4B4FF0FF325A604D
:10033C00194B4FF480729A60174801F013FF034673
:10034C00002B01D000F03CF900233B7100237B71A2
:10035C000023BB713B1D012219460F4801F08EFF93
:10036C000346002B01D000F02BF901233B70012335
:10037C007B700123BB700023FB703B4601221946A6
:10038C00054802F013F80346002B01D000F018F9D1
:10039C0000BF0837BD4680BDAC00002000280040DF
:1003AC0080B500AF114B124A1A60104B4FF4165225
:1003BC005A600E4B00229A600C4B0022DA600B4BF9
:1003CC0000221A61094B0C225A61084B00229A61D7
:1003DC00064B0022DA61054802F048FA0346002B6E
:1003EC0001D000F0EDF800BF80BD00BFC0000020C0
:1003FC000038014080B500AF114B124A1A60104B07
:10040C004FF416525A600E4B00229A600C4B00228D
:10041C00DA600B4B00221A61094B0C225A61084B13
:10042C0000229A61064B0022DA61054802F01EFA9E
:10043C000346002B01D000F0C3F800BF80BD00BF05
:10044C00080100200044004080B500AF114B124A57
:10045C001A60104B4FF416525A600E4B00229A60E1
:10046C000C4B0022DA600B4B00221A61094B0C2258
:10047C005A61084B00229A61064B0022DA6105484A
:10048C0002F0F4F90346002B01D000F099F800BFFC
:10049C0080BD00BF500100200048004080B588B0EE
:1004AC0000AF07F1100300221A605A609A60DA60FC
:1004BC003F4B9B693E4A43F0100393613C4B9B6955
:1004CC0003F01003FB60FB68394B9B69384A43F01F
:1004DC0004039361364B9B6903F00403BB60BB6858
:1004EC00334B9B69324A43F008039361304B9B6951
:1004FC0003F008037B607B6800224FF400512D4809
:10050C0000F04CFF00224FF220312B4800F046FF48
:10051C0000224FF40141294800F040FF4FF40053F2
:10052C003B6101237B610023BB610223FB6107F16B
:10053C00100319461F4800F0ADFD41F6F0033B6176
:10054C0000237B610023BB6107F1100319461B4894
:10055C0000F0A0FD1B233B6100237B610023BB61EA
:10056C0007F110031946144800F094FD4FF22033A4
:10057C003B6101237B610023BB610223FB6107F11B
:10058C00100319460C4800F085FD4FF401433B6104
:10059C0001237B610023BB610223FB6107F1100384
:1005AC001946064800F076FD00BF2037BD4680BDD9
:1005BC000010024000100140000C014000080140F6
:1005CC0080B400AF72B600BF00BFFDE780B485B049
:1005DC0000AF154B9B69144A43F001039361124B16
:1005EC009B6903F00103BB60BB680F4BDB690E4AD0
:1005FC0043F08053D3610C4BDB6903F080537B6079
:10060C007B680A4B5B68FB60FB6823F0E063FB6074
:10061C00FB6843F00073FB60044AFB68536000BF47
:10062C001437BD4680BC70470010024000000140EA
:10063C0080B588B000AF786007F1100300221A6013
:10064C005A609A60DA607B681B68144A934221D125
:10065C00134B9B69124A43F400739361104B9B69D3
:10066C0003F40073FB60FB680D4B9B690C4A43F071
:10067C00040393610A4B9B6903F00403BB60BB68E2
:10068C0003233B6103237B6107F1100319460548E3
:10069C0000F000FD00BF2037BD4680BD00240140A6
:1006AC00001002400008014080B588B000AF7860AF
:1006BC0007F1100300221A605A609A60DA607B68B6
:1006CC001B68154A934223D1144B9B69134A43F080
:1006DC0008039361114B9B6903F00803FB60FB68F3
:1006EC00C0233B6112237B610323FB6107F11003E1
:1006FC0019460B4800F0CEFC084BDB69074A43F463
:10070C000013D361054BDB6903F40013BB60BB68BA
:10071C0000BF2037BD4680BD005400400010024091
:10072C00000C014080B584B000AF78607B681B681A
:10073C000B4A934210D100F08DFF0A4BDB69094A3A
:10074C0043F00063D361074BDB6903F00063FB608C
:10075C00FB68054B01221A6000BF1037BD4680BDF7
:10076C0000280040001002403C04424280B58CB08E
:10077C0000AF786007F1200300221A605A609A607B
:10078C00DA607B681B68534A934232D1524B9B69A7
:10079C00514A43F4804393614F4B9B6903F480436C
:1007AC00FB61FB694C4B9B694B4A43F0040393611F
:1007BC00494B9B6903F00403BB61BB694FF40073A5
:1007CC003B6202237B620323FB6207F12003194681
:1007DC00424800F05FFC4FF480633B6200237B6275
:1007EC000023BB6207F1200319463C4800F052FC81
:1007FC006CE07B681B683A4A934230D1364BDB691C
:10080C00354A43F40033D361334BDB6903F40033D3
:10081C007B617B69304B9B692F4A43F004039361E6
:10082C002D4B9B6903F004033B613B6904233B6242
:10083C0002237B620323FB6207F12003194627483E
:10084C0000F028FC08233B6200237B620023BB6280
:10085C0007F120031946214800F01CFC36E07B68A8
:10086C001B68204A934231D11B4BDB691A4A43F473
:10087C008023D361184BDB6903F48023FB60FB6896
:10088C00154B9B69144A43F008039361124B9B6907
:10089C0003F00803BB60BB684FF480633B62022328
:1008AC007B620323FB6207F1200319460E4800F01C
:1008BC00F1FB4FF400633B6200237B620023BB62BD
:1008CC0007F120031946084800F0E4FB00BF30375D
:1008DC00BD4680BD003801400010024000080140B8
:1008EC000044004000480040000C014080B400AFC0
:1008FC0000BFFDE780B400AF00BFFDE780B400AFE0
:10090C0000BFFDE780B400AF00BFFDE780B400AFCF
:10091C0000BFFDE780B400AF00BFBD4680BC704790
:10092C0080B400AF00BFBD4680BC704780B400AF40
:10093C0000BFBD4680BC704780B500AF00F074F8B6
:10094C0000BF80BD80B400AF00BFBD4680BC704707
:10095C00FFF7F8FF0B480C490C4A002302E0D4586F
:10096C00C4500433C4188C42F9D3094A094C0023EF
:10097C0001E013600432A242FBD302F05DF8FFF7F2
:10098C00DFFB7047000000200C000020EC2A000860
:10099C000C0000209C010020FEE7000080B500AF99
:1009AC00084B1B68074A43F010031360032000F048
:1009BC003DFB0F2000F008F8FFF708FE0023184657
:1009CC0080BD00BF0020024080B582B000AF7860CF
:1009DC00124B1A68124B1B7819464FF47A73B3FBFF
:1009EC00F1F3B2FBF3F3184600F047FB0346002B80
:1009FC0001D001230EE07B680F2B0AD80022796806
:100A0C004FF0FF3000F01DFB064A7B68136000239B
:100A1C0000E0012318460837BD4680BD00000020C9
:100A2C00080000200400002080B400AF054B1B78A8
:100A3C001A46054B1B681344034A136000BFBD469E
:100A4C0080BC7047080000209801002080B400AFE3
:100A5C00024B1B681846BD4680BC704798010020AD
:100A6C0080B584B000AF7860FFF7F0FFB8607B68AA
:100A7C00FB60FB68B3F1FF3F05D00A4B1B781A46AD
:100A8C00FB681344FB6000BFFFF7E0FF0246BB6846
:100A9C00D31AFA689A42F7D800BF00BF1037BD4688
:100AAC0080BD00BF0800002080B586B000AF786024
:100ABC000023FB7500233B610023BB600023FB601C
:100ACC007B68002B01D10123BEE07B689B68002B67
:100ADC007B689B6A002B09D17B680022DA627B68F9
:100AEC00002283F824207868FFF7A2FD786800F0D4
:100AFC00ABF90346FB757B689B6A03F01003002B74
:100B0C0040F09980FB7D002B40F095807B689B6AC0
:100B1C0023F4885323F0020343F002027B689A62A9
:100B2C007B685A687B68DB691A437B681B7B5B00BC
:100B3C001343BA681343BB607B689B68B3F5807F33
:100B4C0003D07B689B68012B02D14FF4807300E0CB
:100B5C0000233A6913433B617B681B7D012B19D140
:100B6C007B681B7B002B09D17B689B69013B5A037B
:100B7C003B69134343F400633B610BE07B689B6A66
:100B8C0043F020027B689A627B68DB6A43F00102C7
:100B9C007B68DA627B681B685B6823F469417B685D
:100BAC001B683A690A435A607B681B689A68284B31
:100BBC0013407A681268B9680B4393607B689B6832
:100BCC00B3F5807F03D07B689B68012B04D17B68D5
:100BDC001B69013B1B05FB607B681B68DB6A23F40C
:100BEC0070017B681B68FA680A43DA627B681B68D1
:100BFC009A68184B1340BA689A420BD17B68002252
:100C0C00DA627B689B6A23F0030343F001027B6882
:100C1C009A6218E07B689B6A23F0120343F010027F
:100C2C007B689A627B68DB6A43F001027B68DA625C
:100C3C000123FB7507E07B689B6A43F010027B681D
:100C4C009A620123FB75FB7D18461837BD4680BDA3
:100C5C00FDF7E1FFFE0E1FFF80B485B000AF78609A
:100C6C0039600023FB730023BB607B6893F824304E
:100C7C00012B01D10223DCE07B68012283F82420C4
:100C8C003B685B68062B1CD87B681B68596B3B6800
:100C9C005A6813469B001344053B1F2202FA03F3C8
:100CAC00DB4319403B6818683B685A6813469B0045
:100CBC001344053B00FA03F27B681B680A435A6332
:100CCC003CE03B685B680C2B1CD87B681B68196B81
:100CDC003B685A6813469B001344233B1F2202FABD
:100CEC0003F3DB4319403B6818683B685A681346AA
:100CFC009B001344233B00FA03F27B681B680A43F6
:100D0C001A631BE07B681B68D96A3B685A681346F8
:100D1C009B001344413B1F2202FA03F3DB431940AF
:100D2C003B6818683B685A6813469B001344413B68
:100D3C0000FA03F27B681B680A43DA623B681B68A3
:100D4C00092B1CD97B681B68D9683B681A68134649
:100D5C005B0013441E3B072202FA03F3DB431940EA
:100D6C003B6898683B681A6813465B0013441E3B4B
:100D7C0000FA03F27B681B680A43DA6019E07B68AF
:100D8C001B6819693B681A6813465B0013440722F9
:100D9C0002FA03F3DB4319403B6898683B681A6816
:100DAC0013465B00134400FA03F27B681B680A438A
:100DBC001A613B681B68102B03D03B681B68112B16
:100DCC0032D17B681B681D4A934225D17B681B6816
:100DDC009B6803F40003002B26D17B681B689A6880
:100DEC007B681B6842F400029A603B681B68102BFE
:100DFC001AD1134B1B68134AA2FB03239A0C1346FC
:100E0C009B0013445B00BB6002E0BB68013BBB6012
:100E1C00BB68002BF9D107E07B689B6A43F020028A
:100E2C007B689A620123FB737B68002283F8242081
:100E3C00FB7B18461437BD4680BC7047002401402C
:100E4C000000002083DE1B4380B584B000AF7860C7
:100E5C000023FB607B681B689B6803F00103012B7C
:100E6C002ED17B681B689A687B681B6822F0010294
:100E7C009A60FFF7EBFDF8601BE0FFF7E7FD024619
:100E8C00FB68D31A022B14D97B681B689B6803F090
:100E9C000103012B0DD17B689B6A43F010027B6828
:100EAC009A627B68DB6A43F001027B68DA62012399
:100EBC0007E07B681B689B6803F00103012BDCD007
:100ECC00002318461037BD4680BD000080B485B0A5
:100EDC0000AF78607B6803F00703FB600C4BDB68AA
:100EEC00BB60BA684FF6FF031340BB60FB681A0285
:100EFC00BB68134343F0BF6343F40033BB60044A45
:100F0C00BB68D36000BF1437BD4680BC704700BFC0
:100F1C0000ED00E080B400AF044BDB681B0A03F06B
:100F2C0007031846BD4680BC704700BF00ED00E0CB
:100F3C0080B483B000AF03463960FB7197F907307A
:100F4C00002B0ADB3B68DAB20C4997F90730120127
:100F5C00D2B20B4483F800230AE03B68DAB20849AA
:100F6C00FB7903F00F03043B1201D2B20B441A7647
:100F7C0000BF0C37BD4680BC704700BF00E100E0ED
:100F8C0000ED00E080B489B000AFF860B9607A6021
:100F9C00FB6803F00703FB61FB69C3F10703042B38
:100FAC0028BF0423BB61FB690433062B02D9FB6900
:100FBC00033B00E000237B614FF0FF32BB6902FA78
:100FCC0003F3DA43BB681A407B699A404FF0FF3158
:100FDC007B6901FA03F3D9437B680B401343184632
:100FEC002437BD4680BC704780B582B000AF7860B6
:100FFC007B68013BB3F1807F01D301230FE00A4AE8
:10100C007B68013B53600F214FF0FF30FFF790FFDF
:10101C00054B00229A60044B07221A6000231846E5
:10102C000837BD4680BD00BF10E000E080B582B03F
:10103C0000AF78607868FFF749FF00BF0837BD46FE
:10104C0080BD80B586B000AF0346B9607A60FB7393
:10105C0000237B61FFF75EFF78617A68B968786975
:10106C00FFF790FF024697F90F3011461846FFF72D
:10107C005FFF00BF1837BD4680BD80B582B000AFA2
:10108C0078607868FFF7B0FF034618460837BD460E
:10109C0080BD000080B48BB000AF78603960002355
:1010AC007B6200233B6269E101227B6A02FA03F353
:1010BC00FB613B681B68FA691340BB61BA69FB6949
:1010CC009A4240F058813B685B689A4A93425ED0E2
:1010DC00984A934275D8984A934258D0964A93426C
:1010EC006FD8964A934252D0944A934269D8944A04
:1010FC0093424CD0924A934263D8924A934246D040
:10110C00904A93425DD8122B2AD8122B59D801A29F
:10111C0052F823F09B110008751100088711000884
:10112C00C9110008CF110008CF110008CF11000819
:10113C00CF110008CF110008CF110008CF11000803
:10114C00CF110008CF110008CF110008CF110008F3
:10115C00CF110008CF1100087D1100089111000873
:10116C00794A934213D02CE03B68DB683B6229E060
:10117C003B68DB6804333B6224E03B68DB68083384
:10118C003B621FE03B68DB680C333B621AE03B6858
:10119C009B68002B02D104233B6213E03B689B68E5
:1011AC00012B05D108233B627B68FA691A6109E0BF
:1011BC0008233B627B68FA695A6103E000233B62B7
:1011CC0000E000BFBB69FF2B01D87B6801E07B68A6
:1011DC0004337B61BB69FF2B02D87B6A9B0002E066
:1011EC007B6A083B9B003B617B691A680F213B695A
:1011FC0001FA03F3DB431A40396A3B6901FA03F342
:10120C001A437B691A603B685B6803F08053002BC0
:10121C0000F0B1804D4B9B694C4A43F00103936144
:10122C004A4B9B6903F00103BB60BB68484A7B6A6D
:10123C009B08023352F82330FB607B6A03F00303F4
:10124C009B000F2202FA03F3DB43FA681340FB60A6
:10125C007B68404A934213D07B683F4A93420DD03F
:10126C007B683E4A934207D07B683D4A934201D14A
:10127C00032306E0042304E0022302E0012300E040
:10128C0000237A6A02F0030292009340FA68134337
:10129C00FB602F497B6A9B080233FA6841F82320D4
:1012AC003B685B6803F48013002B06D02D4B9A68C7
:1012BC002C49BB6913438B6006E02A4B9A68BB69C7
:1012CC00DB43284913408B603B685B6803F40013D5
:1012DC00002B06D0234BDA682249BB691343CB6041
:1012EC0006E0204BDA68BB69DB431E491340CB6038
:1012FC003B685B6803F40033002B06D0194B5A682B
:10130C001849BB6913434B6006E0164B5A68BB691E
:10131C00DB43144913404B603B685B6803F4803338
:10132C00002B21D00F4B1A680E49BB6913430B607D
:10133C0021E000BF0000321000003110000022102C
:10134C0000002110000012100000111000100240CB
:10135C000000014000080140000C01400010014059
:10136C0000140140000401400B4B1A68BB69DB43BD
:10137C00094913400B607B6A01337B623B681A6836
:10138C007B6A22FA03F3002B7FF48EAE00BF00BF02
:10139C002C37BD4680BC70470004014080B483B03C
:1013AC0000AF78600B467B8013467B707B78002BFC
:1013BC0003D07A887B681A6103E07B881A047B6807
:1013CC001A6100BF0C37BD4680BC704780B584B035
:1013DC0000AF78607B68002B01D101232BE17B6887
:1013EC0093F83D30DBB2002B06D17B68002283F8EA
:1013FC003C207868FFF758F97B68242283F83D205D
:10140C007B681B681A687B681B6822F001021A60F3
:10141C007B681B681A687B681B6842F400421A6080
:10142C007B681B681A687B681B6822F400421A6090
:10143C0000F0E6FCF8607B685B68814A934207D851
:10144C00FB68804A934294BF01230023DBB206E081
:10145C00FB687D4A934294BF01230023DBB2002B2F
:10146C0001D00123E7E0FB68784AA2FB03239B0C25
:10147C00BB607B681B685B6823F03F017B681B6863
:10148C00BA680A435A607B681B681B6A23F03F01E9
:10149C007B685B686A4A934202D8BB68013309E0F7
:1014AC00BB684FF4967202FB03F3694AA2FB032359
:1014BC009B0901337A6812680B4313627B681B68C3
:1014CC00DB6923F44F4222F0FF027B685B685C49C6
:1014DC008B4219D8FB68591E7B685B685B00B1FBBB
:1014EC00F3F3591C40F6FC730B40002B0AD0FB683D
:1014FC00591E7B685B685B00B1FBF3F30133C3F3EC
:10150C000B0351E004234FE07B689B68002B11D147
:10151C00FB68581E7B6859680B465B000B44B0FB9C
:10152C00F3F30133C3F30B03002B0CBF0123002394
:10153C00DBB212E0FB68581E7B6859680B469B00B7
:10154C000B4499000B44B0FBF3F30133C3F30B03CF
:10155C00002B0CBF01230023DBB2002B01D0012395
:10156C0022E07B689B68002B0ED1FB68581E7B68C1
:10157C0059680B465B000B44B0FBF3F30133C3F328
:10158C000B0343F400430FE0FB68581E7B6859685B
:10159C000B469B000B4499000B44B0FBF3F3013357
:1015AC00C3F30B0343F44043796809681343CB61DD
:1015BC007B681B681B6823F0C0017B68DA697B6859
:1015CC001B6A1A437B681B680A431A607B681B689A
:1015DC009B6823F4034323F0FF037A6811697A684C
:1015EC00D26811437A6812680B4393607B681B685E
:1015FC00DB6823F0FF017B685A697B689B691A439F
:10160C007B681B680A43DA607B681B681A687B6816
:10161C001B6842F001021A607B6800221A647B6826
:10162C00202283F83D207B6800221A637B6800220D
:10163C0083F83E20002318461037BD4680BD00BFFE
:10164C00A08601007F841E00FF083D0083DE1B4343
:10165C00D34D621080B400AF034B01221A6000BF5F
:10166C00BD4680BC704700BF20000E4280B586B0DE
:10167C0000AF78607B68002B01D1012372E27B689C
:10168C001B6803F00103002B00F08780924B5B6812
:10169C0003F00C03042B0CD08F4B5B6803F00C0392
:1016AC00082B12D18C4B5B6803F48033B3F5803F6D
:1016BC000BD1894B1B6803F40033002B6CD07B6877
:1016CC005B68002B68D101234CE27B685B68B3F547
:1016DC00803F06D1804B1B687F4A43F480331360F4
:1016EC002EE07B685B68002B0CD17B4B1B687A4A25
:1016FC0023F480331360784B1B68774A23F48023E0
:10170C0013601DE07B685B68B3F5A02F0CD1724BA6
:10171C001B68714A43F4802313606F4B1B686E4A3D
:10172C0043F4803313600BE06B4B1B686A4A23F461
:10173C0080331360684B1B68674A23F48023136063
:10174C007B685B68002B13D0FFF780F9386108E0E9
:10175C00FFF77CF902463B69D31A642B01D90323AA
:10176C0000E25D4B1B6803F40033002BF0D014E057
:10177C00FFF76CF9386108E0FFF768F902463B693E
:10178C00D31A642B01D90323ECE1534B1B6803F4EC
:10179C000033002BF0D100E000BF7B681B6803F026
:1017AC000203002B63D04C4B5B6803F00C03002B43
:1017BC000BD0494B5B6803F00C03082B1CD1464B38
:1017CC005B6803F48033002B16D1434B1B6803F08A
:1017DC000203002B05D07B681B69012B01D0012370
:1017EC00C0E13D4B1B6823F0F8027B685B69DB00B2
:1017FC00394913430B603AE07B681B69002B20D0FE
:10180C00364B01221A60FFF721F9386108E0FFF727
:10181C001DF902463B69D31A022B01D90323A1E11E
:10182C002D4B1B6803F00203002BF0D02A4B1B68D6
:10183C0023F0F8027B685B69DB00274913430B60DC
:10184C0015E0264B00221A60FFF700F9386108E01A
:10185C00FFF7FCF802463B69D31A022B01D903238C
:10186C0080E11D4B1B6803F00203002BF0D17B6859
:10187C001B6803F00803002B3AD07B689B69002B94
:10188C0019D0174B01221A60FFF7E0F8386108E015
:10189C00FFF7DCF802463B69D31A022B01D903236C
:1018AC0060E10D4B5B6A03F00203002BF0D00120CA
:1018BC0000F0CEFA1CE00A4B00221A60FFF7C6F8C3
:1018CC0038610FE0FFF7C2F802463B69D31A022BCE
:1018DC0008D9032346E100BF001002400000424239
:1018EC0080044242924B5B6A03F00203002BE9D165
:1018FC007B681B6803F00403002B00F0A680002318
:10190C00FB758B4BDB6903F08053002B0DD1884B9F
:10191C00DB69874A43F08053D361854BDB6903F065
:10192C008053BB60BB680123FB75824B1B6803F4BF
:10193C008073002B18D17F4B1B687E4A43F4807355
:10194C001360FFF783F8386108E0FFF77FF8024671
:10195C003B69D31A642B01D9032303E1754B1B6834
:10196C0003F48073002BF0D07B68DB68012B06D16D
:10197C006F4B1B6A6E4A43F0010313622DE07B68C8
:10198C00DB68002B0CD16A4B1B6A694A23F00103FC
:10199C001362674B1B6A664A23F0040313621CE054
:1019AC007B68DB68052B0CD1614B1B6A604A43F0EA
:1019BC00040313625E4B1B6A5D4A43F0010313621E
:1019CC000BE05B4B1B6A5A4A23F001031362584B22
:1019DC001B6A574A23F0040313627B68DB68002BF5
:1019EC0015D0FFF733F838610AE0FFF72FF80246FD
:1019FC003B69D31A41F28832934201D90323B1E0F7
:101A0C004B4B1B6A03F00203002BEED014E0FFF7E4
:101A1C001DF838610AE0FFF719F802463B69D31A42
:101A2C0041F28832934201D903239BE0404B1B6A5D
:101A3C0003F00203002BEED1FB7D012B05D13C4BB7
:101A4C00DB693B4A23F08053D3617B68DB69002B55
:101A5C0000F08780364B5B6803F00C03082B61D0D9
:101A6C007B68DB69022B46D1334B00221A60FEF7F0
:101A7C00EDFF386108E0FEF7E9FF02463B69D31A37
:101A8C00022B01D903236DE0294B1B6803F0007373
:101A9C00002BF0D17B681B6AB3F5803F08D1244B37
:101AAC005B6823F400327B689B68214913434B60CD
:101ABC001F4B5B6823F474127B68196A7B685B6A42
:101ACC000B431B4913434B601B4B01221A60FEF75F
:101ADC00BDFF386108E0FEF7B9FF02463B69D31A37
:101AEC00022B01D903233DE0114B1B6803F000735B
:101AFC00002BF0D035E0104B00221A60FEF7A6FF49
:101B0C00386108E0FEF7A2FF02463B69D31A022BAC
:101B1C0001D9032326E0064B1B6803F00073002B4E
:101B2C00F0D11EE07B68DB69012B07D1012319E0A2
:101B3C000010024000700040600042420B4B5B689A
:101B4C00FB60FB6803F480327B681B6A9A4206D107
:101B5C00FB6803F470127B685B6A9A4201D0012324
:101B6C0000E0002318461837BD4680BD0010024027
:101B7C0080B584B000AF786039607B68002B01D1F0
:101B8C000123D0E06A4B1B6803F007033A689A42C2
:101B9C0010D9674B1B6823F0070265493B68134358
:101BAC000B60634B1B6803F007033A689A4201D041
:101BBC000123B8E07B681B6803F00203002B20D0E4
:101BCC007B681B6803F00403002B05D0594B5B6842
:101BDC00584A43F4E06353607B681B6803F00803C6
:101BEC00002B05D0534B5B68524A43F4605353604F
:101BFC00504B5B6823F0F0027B689B684D491343A4
:101C0C004B607B681B6803F00103002B40D07B68A2
:101C1C005B68012B07D1474B1B6803F40033002B87
:101C2C0015D101237FE07B685B68022B07D1414B08
:101C3C001B6803F00073002B09D1012373E03D4BAB
:101C4C001B6803F00203002B01D101236BE0394B1D
:101C5C005B6823F003027B685B68364913434B6077
:101C6C00FEF7F4FEF8600AE0FEF7F0FE0246FB68B1
:101C7C00D31A41F28832934201D9032353E02D4BFE
:101C8C005B6803F00C027B685B689B009A42EBD1AB
:101C9C00274B1B6803F007033A689A4210D2244B77
:101CAC001B6823F0070222493B6813430B60204B4F
:101CBC001B6803F007033A689A4201D0012332E013
:101CCC007B681B6803F00403002B08D0194B5B687E
:101CDC0023F4E0627B68DB68164913434B607B6836
:101CEC001B6803F00803002B09D0124B5B6823F42C
:101CFC0060527B681B69DB000E4913434B6000F09C
:101D0C0021F802460B4B5B681B0903F00F030A49D1
:101D1C00CB5C22FA03F3094A1360094B1B68184683
:101D2C00FEF752FE002318461037BD4680BD00BF9B
:101D3C000020024000100240A42A000800000020ED
:101D4C000400002080B487B000AF0023FB600023A8
:101D5C00BB6000237B6100237B6000233B611E4B37
:101D6C005B68FB60FB6803F00C03042B02D0082BB0
:101D7C0003D027E0194B3B6127E0FB689B0C03F079
:101D8C000F03174AD35C7B60FB6803F48033002B92
:101D9C0010D0114B5B685B0C03F00103114AD35C50
:101DAC00BB607B680D4A03FB02F2BB68B2FBF3F32A
:101DBC007B6104E07B680C4A02FB03F37B617B696B
:101DCC003B6102E0054B3B6100BF3B6918461C3789
:101DDC00BD4680BC704700BF0010024000127A0064
:101DEC00BC2A0008CC2A000800093D0080B400AFD2
:101DFC00024B1B681846BD4680BC70470000002093
:101E0C0080B500AFFFF7F2FF0246054B5B681B0A7B
:101E1C0003F007030349CB5C22FA03F3184680BD99
:101E2C0000100240B42A000880B500AFFFF7DEFFB7
:101E3C000246054B5B68DB0A03F007030349CB5CE6
:101E4C0022FA03F3184680BD00100240B42A0008A1
:101E5C0080B485B000AF78600A4B1B680A4AA2FBBD
:101E6C0003235B0A7A6802FB03F3FB6000BFFB6889
:101E7C005A1EFA60002BF9D100BF00BF1437BD46C3
:101E8C0080BC704700000020D34D621080B586B036
:101E9C0000AF786000233B610023FB607B681B680C
:101EAC0003F00103002B7DD00023FB754F4BDB6946
:101EBC0003F08053002B0DD14C4BDB694B4A43F0A4
:101ECC008053D361494BDB6903F08053BB60BB6823
:101EDC000123FB75464B1B6803F48073002B18D150
:101EEC00434B1B68424A43F480731360FEF7AEFD0C
:101EFC00386108E0FEF7AAFD02463B69D31A642B51
:101F0C0001D903236DE03A4B1B6803F48073002B5B
:101F1C00F0D0364B1B6A03F44073FB60FB68002B5C
:101F2C002ED07B685B6803F44073FA689A4227D022
:101F3C002E4B1B6A23F44073FB602E4B01221A605C
:101F4C002C4B00221A60294AFB681362FB6803F0D1
:101F5C000103002B14D0FEF779FD38610AE0FEF77F
:101F6C0075FD02463B69D31A41F28832934201D97E
:101F7C00032336E01D4B1B6A03F00203002BEED04B
:101F8C001A4B1B6A23F440727B685B681749134336
:101F9C000B62FB7D012B05D1144BDB69134A23F03B
:101FAC008053D3617B681B6803F00203002B08D0BD
:101FBC000E4B5B6823F440427B689B680B491343D0
:101FCC004B607B681B6803F01003002B08D0074B99
:101FDC005B6823F480027B68DB68044913434B6025
:101FEC00002318461837BD4680BD00BF00100240C4
:101FFC00007000404004424280B588B000AF786069
:10200C0000237B610023FB6100233B610023FB6009
:10201C000023BB617B68102B0AD07B68102B00F26D
:10202C008A807B68012B45D07B68022B75D082E0BF
:10203C00464B5B68FB60454B1B6803F08073002BC1
:10204C007BD0FB689B0C03F00F03414AD35C3B61D4
:10205C00FB6803F48033002B15D03C4B5B685B0CA6
:10206C0003F001033B4AD35C7B61FB6803F48033D0
:10207C00002B0DD0384A7B69B2FBF3F23B6902FBB3
:10208C0003F3FB6104E03B69344A02FB03F3FB619D
:10209C002E4B5B6803F48003B3F5800F02D1FB6910
:1020AC00BB614AE0FB695B002D4AA2FB03235B0882
:1020BC00BB6142E0254B1B6AFB60FB6803F4407379
:1020CC00B3F5807F08D1FB6803F00203002B03D02B
:1020DC004FF40043BB611FE0FB6803F44073B3F59E
:1020EC00007F09D1194B5B6A03F00203002B03D06C
:1020FC0049F64043BB610FE0FB6803F44073B3F552
:10210C00407F1CD1114B1B6803F40033002B16D0FD
:10211C004FF22443BB6112E011E0FFF785FE02464B
:10212C000A4B5B689B0B03F0030301335B00B2FBB0
:10213C00F3F3BB6104E000BF02E000BF00E000BFAE
:10214C00BB6918462037BD4680BD00BF0010024059
:10215C00D02A0008E02A000800127A0000093D008D
:10216C00ABAAAAAA80B584B000AF78600023FB604C
:10217C007B68002B01D101237AE07B685B7CDBB2AE
:10218C00002B05D17B6800221A747868FEF7CAFA16
:10219C007B6802225A74786800F0BEF90346002B63
:1021AC0004D07B6804225A74012361E0786800F043
:1021BC0077FA0346002B04D07B6804225A7401235F
:1021CC0056E07B681B685A687B681B6822F0070224
:1021DC005A607B689B68002B05D0274B1B6B264AEB
:1021EC0023F001031363244BDB6A23F460727B68D6
:1021FC009B6821491343CB627B685B68B3F1FF3F5B
:10220C0003D07B685B68FB600EE00120FFF7F4FEF7
:10221C00F860FB68002B04D17B6804225A740123FC
:10222C0026E0FB68013BFB60FB681A0C7B681B68B3
:10223C0002F00F029A607B681B68FA6892B2DA604F
:10224C00786800F055FA0346002B04D07B68042212
:10225C005A7401230CE07B680022DA737B6801223C
:10226C005A737B6801229A737B6801225A7400238B
:10227C0018461037BD4680BD006C004090B587B045
:10228C0000AFF860B9607A6000237B6100233B618A
:10229C00FB68002B02D0BB68002B01D1012380E02E
:1022AC00FB681B7C012B01D102237AE0FB68012225
:1022BC001A74FB6802225A747B68002B13D1BB681A
:1022CC001B781A464FF4616303FB02F2BB685B7820
:1022DC0019460B461B015B1A9B001344BA68927893
:1022EC0013447B611EE0BB681B78184600F028FA8B
:1022FC0003461A464FF4616303FB02F4BB685B7838
:10230C00184600F01DFA03461A4613461B019B1A89
:10231C009B001C44BB689B78184600F011FA0346DE
:10232C0023447B617969F86800F053F90346002B6C
:10233C0007D0FB6804225A74FB6800221A7401232C
:10234C002FE0FB681B685A68FB681B6822F00502CB
:10235C005A60F86800F064F938613B69B3F1FF3FEB
:10236C0018D03A697B699A4214D23B6903F5A833B9
:10237C0003F5C0733B613969F86800F06AF90346EC
:10238C00002B07D0FB6804225A74FB6800221A74D5
:10239C00012306E0FB6801225A74FB6800221A74C0
:1023AC00002318461C37BD4690BD000080B588B090
:1023BC0000AFF860B9607A600023FB610023BB6159
:1023CC0000237B61FB68002B02D0BB68002B01D182
:1023DC00012397E0FB681B7C012B01D1022391E0C8
:1023EC00FB6801221A74FB6802225A747B68002B6A
:1023FC000CD1BB68DA78FB68DA73BB685A78FB6877
:10240C005A73BB689A78FB689A731AE0BB68DB78DE
:10241C00184600F095F903461A46FB68DA73BB6858
:10242C005B78184600F08CF903461A46FB685A7321
:10243C00BB689B78184600F083F903461A46FB6884
:10244C009A73FB68DB7B1846FB68597BFB689B7BAC
:10245C001A4600F093F903461A46FB681A73FB6898
:10246C001A7BBB681A70F86800F083F8F861FB6996
:10247C00264AA2FB0323DB0A7B617B69182B3AD922
:10248C007B69234AA2FB03231B09224A02FB03F3A9
:10249C00FA69D31AFB61F969F86800F09AF80346F7
:1024AC00002B07D0FB6804225A74FB6800221A74B4
:1024BC00012327E0F86800F0B3F8B861BB69B3F109
:1024CC00FF3F18D0BA69FB699A4214D2BB6903F575
:1024DC00A83303F5C073BB61B969F86800F0B9F8AB
:1024EC000346002B07D0FB6804225A74FB680022B9
:1024FC001A74012306E0FB6801225A74FB6800225F
:10250C001A74002318462037BD4680BDC5B3A2916E
:10251C00ABAAAAAA8051010080B584B000AF786044
:10252C000023FB607B68002B01D101231DE07B683D
:10253C001B685A687B681B6822F008025A60FEF719
:10254C0085FAF86009E0FEF781FA0246FB68D31AB7
:10255C00B3F57A7F01D9032307E07B681B685B68BE
:10256C0003F00803002BEED0002318461037BD46AD
:10257C0080BD80B487B000AF786000237B820023DD
:10258C003B820023FB8100237B617B681B689B697A
:10259C007B827B681B68DB69FB817B681B689B69A2
:1025AC003B827A8A3B8A9A4208D03B8A1A047B681F
:1025BC001B68DB699BB213437B6104E07B8A1A04C2
:1025CC00FB8913437B617B6918461C37BD4680BC75
:1025DC00704780B584B000AF786039600023FB731E
:1025EC00786800F05DF80346002B02D00123FB73E2
:1025FC0011E07B681B683A68120C9A617B681B6857
:10260C003A6892B2DA61786800F072F80346002BEF
:10261C0001D00123FB73FB7B18461037BD4680BDF0
:10262C0080B485B000AF78600023FB810023BB81B0
:10263C007B681B681B6AFB817B681B685B6ABB81C0
:10264C00FB891A04BB89134318461437BD4680BC5A
:10265C00704780B584B000AF786039600023FB739D
:10266C00786800F01DF80346002B02D00123FB73A1
:10267C0011E07B681B683A68120C1A627B681B6855
:10268C003A6892B25A62786800F032F80346002B2E
:10269C0001D00123FB73FB7B18461037BD4680BD70
:1026AC0080B584B000AF78600023FB60FEF7CEF9F4
:1026BC00F86009E0FEF7CAF90246FB68D31AB3F5D5
:1026CC007A7F01D903230FE07B681B685B6803F0FA
:1026DC002003002BEED07B681B685A687B681B6854
:1026EC0042F010025A60002318461037BD4680BDD8
:1026FC0080B584B000AF78600023FB607B681B68FA
:10270C005A687B681B6822F010025A60FEF79EF92B
:10271C00F86009E0FEF79AF90246FB68D31AB3F5A4
:10272C007A7F01D9032307E07B681B685B6803F0A1
:10273C002003002BEED0002318461037BD4680BD79
:10274C0080B485B000AF0346FB710023FB60FB79BE
:10275C001B09DBB21A4613469B0013445B00FB605B
:10276C00FB7903F00F03DAB2FB68DBB21344DBB284
:10277C0018461437BD4680BC7047000080B485B045
:10278C0000AF78600B46FB701346BB700023BB6038
:10279C000023FB607B6803F5FA63BB60FB78022BBC
:1027AC002DD8FA7813465B001344DB009B1A2C4A95
:1027BC00A2FB03235A08BB781A44BB681A44BB68B3
:1027CC00013B9B081A44BB68013B2649A1FB031340
:1027DC005B09D21ABB68013B2249A1FB0313DB093D
:1027EC0013441A1D204BA3FB0213D11A49080B44A6
:1027FC0099080B46DB005B1AD31AFB6029E0FA78C8
:10280C0013465B001344DB009B1A154AA2FB0323FF
:10281C005A08BB781A44BB681A44BB689B081A4414
:10282C00BB681049A1FB03135B09D21ABB680D49A5
:10283C00A1FB0313DB0913449A1C0B4BA3FB0213E0
:10284C00D11A49080B4499080B46DB005B1AD31AC2
:10285C00FB60FB68DBB218461437BD4680BC704782
:10286C00398EE3381F85EB512549922480B582B00F
:10287C0000AF78607B68002B01D1012342E07B68BC
:10288C0093F84130DBB2002B06D17B68002283F831
:10289C0040207868FDF76AFF7B68242283F841208A
:1028AC007B681B68DA687B681B6822F40052DA606C
:1028BC00786800F02BF87B681B681A697B681B68CA
:1028CC0022F490421A617B681B685A697B681B680A
:1028DC0022F02A025A617B681B68DA687B681B68E5
:1028EC0042F40052DA607B6800225A647B68202232
:1028FC0083F841207B68202283F842207B680022E9
:10290C005A63002318460837BD4680BD80B584B095
:10291C0000AF78607B681B681B6923F440517B68AF
:10292C00DA687B681B680A431A617B689A687B6863
:10293C001B691A437B685B691343BB607B681B682C
:10294C00DB6823F4B05323F00C037A681268B9687F
:10295C000B43D3607B681B685B6923F440717B6815
:10296C009A697B681B680A435A617B681B682C4A0E
:10297C00934203D1FFF758FAF86002E0FFF740FAF0
:10298C00F860FA6813469B0013449A001A447B685B
:10299C005B689B00B2FBF3F3224AA2FB03235B09A7
:1029AC001901FA6813469B0013449A001A447B6879
:1029BC005B689B00B2FBF3F21A4BA3FB02035B09AF
:1029CC00642000FB03F3D31A1B013233154AA2FB1C
:1029DC0003235B0903F0F0031944FA6813469B00C8
:1029EC0013449A001A447B685B689B00B2FBF3F2B9
:1029FC000C4BA3FB02035B09642000FB03F3D31A0B
:102A0C001B013233074AA2FB03235B0903F00F02BD
:102A1C007B681B680A449A6000BF1037BD4680BDB6
:102A2C00003801401F85EB5103460244934200D10C
:102A3C00704703F8011BF9E770B500260C4D0D4CDF
:102A4C00641BA410A64209D100F01AF800260A4D06
:102A5C000A4C641BA410A64205D170BD55F8043B6A
:102A6C0098470136EEE755F8043B98470136F2E7F4
:102A7C00E42A0008E42A0008E42A0008E82A0008EE
:102A8C00F8B500BFF8BC08BC9E467047F8B500BF4F
:082A9C00F8BC08BC9E4670471F
:102AA40000000000000000000102030406070809FA
:102AB40000000000010203040203040506070809DC
:102AC4000A0B0C0D0E0F1010010200000203040586
:102AD400060708090A0B0C0D0E0F10100102000066
:042AE40031010008B4
:042AE8000D010008D4
:0C2AEC000024F4001000000001000000B5
:040000050800095D89
:00000001FF
