:020000040800F2
:1000000000500020990400088104000883040008BF
:100010008504000887040008890400080000000027
:100020000000000000000000000000008B04000839
:100030008D040008000000008F04000891040008EF
:10004000E1040008E1040008E1040008E1040008FC
:10005000E1040008E1040008E1040008E1040008EC
:10006000E1040008E1040008E1040008E1040008DC
:10007000E1040008E1040008E1040008E1040008CC
:10008000E1040008E1040008E1040008E1040008BC
:10009000E1040008E1040008E1040008E1040008AC
:1000A000E1040008E1040008E1040008E10400089C
:1000B000E1040008E1040008E1040008E10400088C
:1000C000E1040008E1040008E1040008E10400087C
:1000D000E1040008E1040008E1040008E10400086C
:1000E000E1040008E1040008E10400080000000049
:1000F0000000000000000000000000000000000000
:0C01000000000000000000005FF808F1A3
:10010C0010B5054C237833B9044B13B10448AFF345
:10011C0000800123237010BD0C00002000000000A3
:10012C00300D000808B5034B1BB103490348AFF36E
:10013C00008008BD0000000010000020300D0008F9
:10014C0030B591B01422002108A800F0BFFD142294
:10015C00002101A800F0BAFD01244FF480330225E0
:10016C00CDE90643CDE90D534FF4801306A80A944C
:10017C000F9300F04DFB08B172B6FEE70F23CDE9EB
:10018C0001354FF480630390CDE90430214601A87A
:10019C0000F000FD08B172B6FEE711B030BD0000F2
:1001AC00F0B589B000F0BCF9FFF7CAFF10220021AE
:1001BC000DEB020000F08AFD994B4FF47A709A69AE
:1001CC00002442F010029A619A69022502F0100292
:1001DC000092009A9A69012642F020029A619A696B
:1001EC00904F02F020020192019A9A6942F00402A7
:1001FC009A619A6902F004020292029A9A6942F098
:10020C0008029A619B6903F008030393039B00F0B7
:10021C00ABF900224FF46041824800F0EBFA002267
:10022C001321814800F0E6FA002240F603417F4892
:10023C0000F0E0FA4FF460437A4804A9CDE90436A3
:10024C00CDE9064500F0F8F91323774804A9CDE968
:10025C000436CDE9064500F0EFF949F620737248F3
:10026C0004A9CDE90434069400F0E6F940F6034302
:10027C006E4804A9CDE90436CDE9064500F0DCF959
:10028C004FF2F833694804A9CDE90434069400F020
:10029C00D3F9642000F068F9634D0B26634C4FF4DE
:1002AC008051204600F0A0FA002840F08B800022FC
:1002BC004FF40041384600F09DFA4FF400512046AF
:1002CC0000F092FA024638B14FF40041284600F093
:1002DC008BFA021E18BF01220121284600F08AFA6F
:1002EC004FF48041204600F07FFA024630B10821DD
:1002FC00204600F079FA021E18BF0122022128467E
:10030C0000F078FA4FF40041204600F06DFA002816
:10031C0068D100224FF48061204600F06BFA4FF454
:10032C000071284600F060FA024630B140212046A8
:10033C0000F05AFA021E18BF01224FF480413846D1
:10034C0000F058FA4FF48061284600F04DFA00286E
:10035C0056D100220121204600F04CFA4FF40061E6
:10036C00284600F041FA024638B14FF4807120461D
:10037C0000F03AFA021E18BF01220221204600F0BA
:10038C0039FA4FF48051284600F02EFA024638B163
:10039C004FF40071204600F027FA021E18BF01220C
:1003AC004FF40061204600F025FA013E0A2000F0CF
:1003BC00DBF816F0FF067FF472AF2021384600F010
:1003CC001EFA6AE72021284600F00EFA00283FF4B6
:1003DC006EAF4FF40041284600F006FAB0FA80F2F6
:1003EC00520965E71021204600F0FEF9002890D054
:1003FC002021204600F0F8F9B0FA80F2520989E782
:10040C008021204600F0F0F90028A2D04FF4807132
:10041C00204600F0E9F9B0FA80F252099AE700BFE1
:10042C00001002400010014000080140000C014087
:10043C000E4B82B09A6942F001029A619A6902F0FD
:10044C0001020092009ADA6942F08052DA61DB69AB
:10045C00074A03F080530193019B536823F0E06338
:10046C0043F00073536002B0704700BF00100240AD
:10047C0000000140FEE7FEE7FEE7FEE7FEE77047FF
:10048C007047704700F05EB870470000FFF7FCFF44
:10049C000B480C490C4A002302E0D458C4500433D6
:1004AC00C4188C42F9D3094A094C002301E01360AB
:1004BC000432A242FBD300F011FCFFF771FE70472F
:1004CC00000000200C000020740D00080C0000201F
:1004DC002C000020FEE7000038B50E4B05461A78BC
:1004EC004FF47A73B3FBF2F30B4A1068B0FBF3F0E2
:1004FC0000F08EF8044658B90F2D09D8024629464B
:10050C004FF0FF3000F054F82046044B1D6038BD0E
:10051C000120FCE70400002000000020080000205F
:10052C00074A08B51368032043F01003136000F06A
:10053C002DF80F20FFF7D0FFFFF77AFF002008BD42
:10054C0000200240034A044B11681B780B441360D3
:10055C00704700BF2800002004000020014B1868E1
:10056C00704700BF2800002038B50446FFF7F6FF9F
:10057C000546631C1EBF044B1B78E418FFF7EEFF07
:10058C00431BA342FAD338BD0400002007490302E1
:10059C00CA6803F4E06322F4E0621204120C134301
:1005AC0043F0BF6343F40033CB60704700ED00E0D1
:1005BC00154B30B5DC68C4F30224C4F10703251DC8
:1005CC00042B28BF0423062D4FF0FF3594BF0024C5
:1005DC00033C05FA03F321EA0303A54022EA0502D2
:1005EC00A340002843EA0203ACBF00F16040074A75
:1005FC004FEA0313DBB2ABBF00F5614000F00F0014
:10060C0080F80033135430BD00ED00E014ED00E031
:10061C000138B0F1807F0BD24FF0E023F021054A76
:10062C00586182F823100020072298611A617047E4
:10063C000120704700ED00E02DE9F74F002426461D
:10064C00DFF888C1624BDFF88CE1DFF88C810A6837
:10065C0032FA06F502D103B0BDE8F08F0127B7409E
:10066C0002EA070537EA02027AD14A68032A07D858
:10067C00013A022A00F28380DFE802F092979D0093
:10068C00122A00F095806DD8112A00F08B80FF2D76
:10069C0098BF81464FF00F0B88BF00F104094FEA59
:1006AC008602D9F8007088BF203A0BFA02FA27EAC2
:1006BC000A0704FA02F21743C9F80070D1F8049043
:1006CC0019F0805F4CD0DCF8182026F0030742F0BC
:1006DC000102CCF81820DCF8182007F1804702F052
:1006EC000102019207F5803706F0030A019A4FEADE
:1006FC008A0ABA680BFA0AFB22EA0B0B374A9042B9
:10070C005DD002F5806290425BD002F5806290422F
:10071C0059D002F58062904214BF0422032202FADF
:10072C000AF242EA0B02BA609A6819F4801F14BFED
:10073C002A43AA439A60DA6819F4001F14BF2A43AB
:10074C00AA43DA605A6819F4003F14BF2A43AA433B
:10075C005A601A6819F4803F14BF2A43AA431A60DE
:10076C00013674E7DFF878904A4508D010D8A9F51F
:10077C0080194A4503D0724501D0424587D18A6819
:10078C00DAB1012A4FF008040CBF076147617EE71C
:10079C00DFF850904A45F2D009F580394A45EDE72B
:1007AC00CC6874E7CC68043471E7CC6808346EE725
:1007BC00CC680C346BE7002469E7042467E700225B
:1007CC00ADE70122ABE70222A9E700BF001002400F
:1007DC00000401400000211000001110000801402D
:1007EC0000002210000031108368194214BF012050
:1007FC00002070470AB1016170470904FBE7C36828
:10080C0001EA030221EA030141EA02410161704756
:10081C002DE9F341054638B30368DB0710D42B6888
:10082C009F075ED42B68190700F195802B685A0737
:10083C0000F1C180EB69002B40F02C81002029E0F5
:10084C00904C636803F00C03042B07D0636803F02F
:10085C000C03082B0AD16368DE0307D523689C03BD
:10086C00DDD56B68002BDAD1012013E06B68B3F592
:10087C00803F12D1236843F480332360FFF76EFE70
:10088C00064623689803CAD4FFF768FE801B6428C9
:10089C00F7D9032002B0BDE8F0819BB9236823F49B
:1008AC0080332360236823F480232360FFF756FEF4
:1008BC00064623689903B2D5FFF750FE801B6428C7
:1008CC00F7D9E6E7B3F5A02F236803D143F48023CF
:1008DC002360CFE723F480332360236823F4802341
:1008EC00CBE7684C636813F00C0F07D0636803F018
:1008FC000C03082B10D16368DA030DD423689B0713
:10090C0002D52B69012BAFD123686A6923F0F80358
:10091C0043EAC203236085E72A695B4B6AB1012273
:10092C001A60FFF71BFE064623689F07ECD4FFF7FF
:10093C0015FE801B0228F7D9ABE71A60FFF70EFEF5
:10094C000646236898077FF56DAFFFF707FE801BFF
:10095C000228F6D99DE7AA694A4E4B4BE2B1012217
:10096C00C3F88024FFF7FAFD0446736A9B070DD584
:10097C004FF4FA52454B1B68B3FBF2F3019300BFE3
:10098C00019B5A1E0192002BF9D14FE7FFF7E6FDB0
:10099C00001B0228E9D97CE7C3F88024FFF7DEFDB1
:1009AC000446736A9F077FF541AFFFF7D7FD001B25
:1009BC000228F6D96DE7334CE369D80024D401271B
:1009CC00E36943F08053E361E36903F080530093E0
:1009DC00009B2F4E3368D90518D5EB68012B26D117
:1009EC00236A43F001032362FFF7B8FD41F2883814
:1009FC000646236A9B073FD5002F3FF41BAFE369E4
:100A0C0023F08053E36115E70027E2E7336843F4F2
:100A1C0080733360FFF7A2FD80463368DA05DCD4BF
:100A2C00FFF79CFDA0EB08006428F6D931E7ABB9C1
:100A3C00236A41F2883823F001032362236A23F0EE
:100A4C0004032362FFF78AFD0646236A9807D3D571
:100A5C00FFF784FD801B4045F7D91AE7052B236A65
:100A6C0003D143F004032362BAE723F001032362AA
:100A7C00236A23F00403B6E7FFF770FD801B4045A3
:100A8C00B7D906E7001002400000424200000020E7
:100A9C00007000402A4C626802F00C02082A3ED01A
:100AAC000022022B274B1A662CD1FFF757FD064666
:100ABC002368990120D42B6AB3F5803F05D1626875
:100ACC00A96822F400320A436260696A62680B43C7
:100ADC0022F474121343012263601A4B1A66FFF757
:100AEC003DFD054623689A013FF5A8AEFFF736FD9C
:100AFC00401B0228F6D9CCE6FFF730FD801B0228FC
:100B0C00D6D9C6E6FFF72AFD054623689B017FF57B
:100B1C0095AEFFF723FD401B0228F6D9B9E6012B51
:100B2C003FF4A2AE60682B6A00F480329A427FF4E4
:100B3C009BAE6B6A00F47010C01A18BF0120A9E6B6
:100B4C0000100240000042420D4A536803F00C01B1
:100B5C00082912D10B48C3F38341DB03405C09D550
:100B6C005368094AC3F340435043084AD35CB0FB73
:100B7C00F3F07047064B584370470348704700BF6B
:100B8C00001002405A0D000800127A00580D00089F
:100B9C0000093D002DE9F0410D46044610B9012035
:100BAC00BDE8F081444A136803F007038B4228D355
:100BBC0021688E0730D4CA0743D43F4A136803F028
:100BCC000703AB4265D822683C4D12F0040F6CD180
:100BDC00130706D56B68226923F4605343EAC203FA
:100BEC006B60FFF7B1FF6B68354AC3F30313D35C3B
:100BFC00D840344B1860344B1868FFF76DFC00205C
:100C0C00CEE7136823F007030B431360136803F05C
:100C1C0007038B42C3D1CBE7284B11F0040F1EBF47
:100C2C005A6842F4E0625A60080742BF5A6842F4BC
:100C3C0060525A605A68A06822F0F00202435A606F
:100C4C00B9E762681D4E012A33681AD113F4003FCC
:100C5C00A5D0736841F2883823F003031343736003
:100C6C00FFF77CFC07467368626803F00C03B3EB78
:100C7C00820FA2D0FFF772FCC01B4045F3D90320B2
:100C8C008EE7022A02D113F0007FE1E713F0020F86
:100C9C00DEE7136823F007032B431360136803F09C
:100CAC000703AB427FF47BAF8DE76B68E16823F4FD
:100CBC00E0630B436B608BE70020024000100240A6
:100CCC00480D0008000000200800002003460244E4
:100CDC00934200D1704703F8011BF9E770B5002669
:100CEC000C4D0D4C641BA410A64209D100F01AF84F
:100CFC0000260A4D0A4C641BA410A64205D170BDF7
:100D0C0055F8043B98470136EEE755F8043B9847F5
:100D1C000136F2E76C0D00086C0D00086C0D000834
:100D2C00700D0008F8B500BFF8BC08BC9E467047B3
:0C0D3C00F8B500BFF8BC08BC9E4670472C
:100D48000000000000000000010203040607080973
:100D5800010202030405060708090A0B0C0D0E0F11
:040D68001010000067
:040D6C003101000849
:040D70000D01000869
:0C0D740000127A000100000010000000D6
:040000050800049952
:00000001FF
